{
  "contractName": "DiplomeVerifier",
  "abi": [
    {
      "inputs": [
        {
          "internalType": "string",
          "name": "_nomEtudiant",
          "type": "string"
        },
        {
          "internalType": "uint8",
          "name": "_noteFrancais",
          "type": "uint8"
        },
        {
          "internalType": "uint8",
          "name": "_noteAnglais",
          "type": "uint8"
        },
        {
          "internalType": "uint8",
          "name": "_moyenne",
          "type": "uint8"
        }
      ],
      "stateMutability": "nonpayable",
      "type": "constructor"
    },
    {
      "inputs": [],
      "name": "moyenne",
      "outputs": [
        {
          "internalType": "uint8",
          "name": "",
          "type": "uint8"
        }
      ],
      "stateMutability": "view",
      "type": "function"
    },
    {
      "inputs": [],
      "name": "nomEtudiant",
      "outputs": [
        {
          "internalType": "string",
          "name": "",
          "type": "string"
        }
      ],
      "stateMutability": "view",
      "type": "function"
    },
    {
      "inputs": [],
      "name": "noteAnglais",
      "outputs": [
        {
          "internalType": "uint8",
          "name": "",
          "type": "uint8"
        }
      ],
      "stateMutability": "view",
      "type": "function"
    },
    {
      "inputs": [],
      "name": "noteFrancais",
      "outputs": [
        {
          "internalType": "uint8",
          "name": "",
          "type": "uint8"
        }
      ],
      "stateMutability": "view",
      "type": "function"
    },
    {
      "inputs": [],
      "name": "verifierDiplome",
      "outputs": [
        {
          "internalType": "bool",
          "name": "",
          "type": "bool"
        }
      ],
      "stateMutability": "view",
      "type": "function"
    }
  ],
  "bytecode": "0x608060405234801562000010575f80fd5b50604051620009cf380380620009cf833981810160405281019062000036919062000260565b835f908162000046919062000525565b508260015f6101000a81548160ff021916908360ff160217905550816001806101000a81548160ff021916908360ff16021790555080600160026101000a81548160ff021916908360ff1602179055505050505062000609565b5f604051905090565b5f80fd5b5f80fd5b5f80fd5b5f80fd5b5f601f19601f8301169050919050565b7f4e487b71000000000000000000000000000000000000000000000000000000005f52604160045260245ffd5b6200010182620000b9565b810181811067ffffffffffffffff82111715620001235762000122620000c9565b5b80604052505050565b5f62000137620000a0565b9050620001458282620000f6565b919050565b5f67ffffffffffffffff821115620001675762000166620000c9565b5b6200017282620000b9565b9050602081019050919050565b5f5b838110156200019e57808201518184015260208101905062000181565b5f8484015250505050565b5f620001bf620001b9846200014a565b6200012c565b905082815260208101848484011115620001de57620001dd620000b5565b5b620001eb8482856200017f565b509392505050565b5f82601f8301126200020a5762000209620000b1565b5b81516200021c848260208601620001a9565b91505092915050565b5f60ff82169050919050565b6200023c8162000225565b811462000247575f80fd5b50565b5f815190506200025a8162000231565b92915050565b5f805f80608085870312156200027b576200027a620000a9565b5b5f85015167ffffffffffffffff8111156200029b576200029a620000ad565b5b620002a987828801620001f3565b9450506020620002bc878288016200024a565b9350506040620002cf878288016200024a565b9250506060620002e2878288016200024a565b91505092959194509250565b5f81519050919050565b7f4e487b71000000000000000000000000000000000000000000000000000000005f52602260045260245ffd5b5f60028204905060018216806200033d57607f821691505b602082108103620003535762000352620002f8565b5b50919050565b5f819050815f5260205f209050919050565b5f6020601f8301049050919050565b5f82821b905092915050565b5f60088302620003b77fffffffffffffffffffffffffffffffffffffffffffffffffffffffffffffffff826200037a565b620003c386836200037a565b95508019841693508086168417925050509392505050565b5f819050919050565b5f819050919050565b5f6200040d620004076200040184620003db565b620003e4565b620003db565b9050919050565b5f819050919050565b6200042883620003ed565b62000440620004378262000414565b84845462000386565b825550505050565b5f90565b6200045662000448565b620004638184846200041d565b505050565b5b818110156200048a576200047e5f826200044c565b60018101905062000469565b5050565b601f821115620004d957620004a38162000359565b620004ae846200036b565b81016020851015620004be578190505b620004d6620004cd856200036b565b83018262000468565b50505b505050565b5f82821c905092915050565b5f620004fb5f1984600802620004de565b1980831691505092915050565b5f620005158383620004ea565b9150826002028217905092915050565b6200053082620002ee565b67ffffffffffffffff8111156200054c576200054b620000c9565b5b62000558825462000325565b620005658282856200048e565b5f60209050601f8311600181146200059b575f841562000586578287015190505b62000592858262000508565b86555062000601565b601f198416620005ab8662000359565b5f5b82811015620005d457848901518255600182019150602085019450602081019050620005ad565b86831015620005f45784890151620005f0601f891682620004ea565b8355505b6001600288020188555050505b505050505050565b6103b880620006175f395ff3fe608060405234801561000f575f80fd5b5060043610610054575f3560e01c8062fc9b9a1461005857806303876b5114610076578063ad103cca14610094578063ed737e77146100b2578063f35c68be146100d0575b5f80fd5b6100606100ee565b60405161006d919061022e565b60405180910390f35b61007e610153565b60405161008b9190610262565b60405180910390f35b61009c610165565b6040516100a99190610305565b60405180910390f35b6100ba6101f0565b6040516100c79190610262565b60405180910390f35b6100d8610203565b6040516100e59190610262565b60405180910390f35b5f600c60015f9054906101000a900460ff1660ff16101580156101225750600c60018054906101000a900460ff1660ff1610155b1561014c57600a600160029054906101000a900460ff1660ff16111561014b5760019050610150565b5b5f90505b90565b60015f9054906101000a900460ff1681565b5f805461017190610352565b80601f016020809104026020016040519081016040528092919081815260200182805461019d90610352565b80156101e85780601f106101bf576101008083540402835291602001916101e8565b820191905f5260205f20905b8154815290600101906020018083116101cb57829003601f168201915b505050505081565b600160029054906101000a900460ff1681565b60018054906101000a900460ff1681565b5f8115159050919050565b61022881610214565b82525050565b5f6020820190506102415f83018461021f565b92915050565b5f60ff82169050919050565b61025c81610247565b82525050565b5f6020820190506102755f830184610253565b92915050565b5f81519050919050565b5f82825260208201905092915050565b5f5b838110156102b2578082015181840152602081019050610297565b5f8484015250505050565b5f601f19601f8301169050919050565b5f6102d78261027b565b6102e18185610285565b93506102f1818560208601610295565b6102fa816102bd565b840191505092915050565b5f6020820190508181035f83015261031d81846102cd565b905092915050565b7f4e487b71000000000000000000000000000000000000000000000000000000005f52602260045260245ffd5b5f600282049050600182168061036957607f821691505b60208210810361037c5761037b610325565b5b5091905056fea2646970667358221220c5d9003b91ff21581ccdbcefc7dda62ebd9f92f076321383366c83b64afa7dba64736f6c63430008150033",
  "immutableReferences": {},
  "source": "// SPDX-License-Identifier: MIT\npragma solidity ^0.8.21;\n\ncontract DiplomeVerifier {\n    string public nomEtudiant;\n    uint8 public noteFrancais;\n    uint8 public noteAnglais;\n    uint8 public moyenne;\n\n    constructor(string memory _nomEtudiant, uint8 _noteFrancais, uint8 _noteAnglais, uint8 _moyenne) {\n        nomEtudiant = _nomEtudiant;\n        noteFrancais = _noteFrancais;\n        noteAnglais = _noteAnglais;\n        moyenne = _moyenne;\n    }\n\n    function verifierDiplome() public view returns (bool) {\n        // Vrifie si les notes en franais et en anglais sont suprieures ou gales  B2\n        if (noteFrancais >= 12 && noteAnglais >= 12) {\n            // Vrifie si la moyenne est suprieure  10\n            if (moyenne > 10) {\n                return true; // L'tudiant russit son diplme\n            }\n        }\n        return false; // L'tudiant ne russit pas son diplme\n    }\n}",
  "sourcePath": "/Users/macbookpro/Documents/GitHub/dappunv/contracts/verificationDiplome.sol",
  "compiler": {
    "name": "solc",
    "version": "0.8.21+commit.d9974bed.Emscripten.clang"
  },
  "schemaVersion": "3.4.16",
  "updatedAt": "2023-12-04T06:37:30.554Z",
  "devdoc": {
    "kind": "dev",
    "methods": {},
    "version": 1
  },
  "userdoc": {
    "kind": "user",
    "methods": {},
    "version": 1
  }
}