{
  "contractName": "VerifierContratEtudiant",
  "abi": [
    {
      "inputs": [
        {
          "internalType": "address",
          "name": "",
          "type": "address"
        }
      ],
      "name": "etudiants",
      "outputs": [
        {
          "internalType": "bool",
          "name": "b2Francais",
          "type": "bool"
        },
        {
          "internalType": "bool",
          "name": "b2Anglais",
          "type": "bool"
        },
        {
          "internalType": "uint8",
          "name": "moyenne",
          "type": "uint8"
        },
        {
          "internalType": "bool",
          "name": "stageValide",
          "type": "bool"
        },
        {
          "internalType": "bool",
          "name": "diplomeObtenu",
          "type": "bool"
        }
      ],
      "stateMutability": "view",
      "type": "function"
    },
    {
      "inputs": [
        {
          "internalType": "bool",
          "name": "_b2Francais",
          "type": "bool"
        },
        {
          "internalType": "bool",
          "name": "_b2Anglais",
          "type": "bool"
        },
        {
          "internalType": "uint8",
          "name": "_moyenne",
          "type": "uint8"
        },
        {
          "internalType": "bool",
          "name": "_stageValide",
          "type": "bool"
        }
      ],
      "name": "ajouterEtudiant",
      "outputs": [],
      "stateMutability": "nonpayable",
      "type": "function"
    },
    {
      "inputs": [],
      "name": "verifierDiploma",
      "outputs": [
        {
          "internalType": "bool",
          "name": "",
          "type": "bool"
        }
      ],
      "stateMutability": "view",
      "type": "function"
    },
    {
      "inputs": [],
      "name": "marquerDiplomeObtenu",
      "outputs": [],
      "stateMutability": "nonpayable",
      "type": "function"
    }
  ],
  "bytecode": "0x608060405234801561000f575f80fd5b506106598061001d5f395ff3fe608060405234801561000f575f80fd5b506004361061004a575f3560e01c8063774207111461004e578063af6250d314610082578063cec875191461009e578063d8cadea2146100a8575b5f80fd5b61006860048036038101906100639190610403565b6100c6565b604051610079959493929190610463565b60405180910390f35b61009c60048036038101906100979190610508565b610133565b005b6100a6610244565b005b6100b06102e4565b6040516100bd919061056c565b60405180910390f35b5f602052805f5260405f205f91509050805f015f9054906101000a900460ff1690805f0160019054906101000a900460ff1690805f0160029054906101000a900460ff1690805f0160039054906101000a900460ff1690805f0160049054906101000a900460ff16905085565b6040518060a00160405280851515815260200184151581526020018360ff16815260200182151581526020015f15158152505f803373ffffffffffffffffffffffffffffffffffffffff1673ffffffffffffffffffffffffffffffffffffffff1681526020019081526020015f205f820151815f015f6101000a81548160ff0219169083151502179055506020820151815f0160016101000a81548160ff0219169083151502179055506040820151815f0160026101000a81548160ff021916908360ff1602179055506060820151815f0160036101000a81548160ff0219169083151502179055506080820151815f0160046101000a81548160ff02191690831515021790555090505050505050565b61024c6102e4565b61028b576040517f08c379a000000000000000000000000000000000000000000000000000000000815260040161028290610605565b60405180910390fd5b60015f803373ffffffffffffffffffffffffffffffffffffffff1673ffffffffffffffffffffffffffffffffffffffff1681526020019081526020015f205f0160046101000a81548160ff021916908315150217905550565b5f805f803373ffffffffffffffffffffffffffffffffffffffff1673ffffffffffffffffffffffffffffffffffffffff1681526020019081526020015f209050805f015f9054906101000a900460ff16801561034d5750805f0160019054906101000a900460ff165b801561036c5750600a815f0160029054906101000a900460ff1660ff16115b80156103855750805f0160039054906101000a900460ff165b801561039f5750805f0160049054906101000a900460ff16155b91505090565b5f80fd5b5f73ffffffffffffffffffffffffffffffffffffffff82169050919050565b5f6103d2826103a9565b9050919050565b6103e2816103c8565b81146103ec575f80fd5b50565b5f813590506103fd816103d9565b92915050565b5f60208284031215610418576104176103a5565b5b5f610425848285016103ef565b91505092915050565b5f8115159050919050565b6104428161042e565b82525050565b5f60ff82169050919050565b61045d81610448565b82525050565b5f60a0820190506104765f830188610439565b6104836020830187610439565b6104906040830186610454565b61049d6060830185610439565b6104aa6080830184610439565b9695505050505050565b6104bd8161042e565b81146104c7575f80fd5b50565b5f813590506104d8816104b4565b92915050565b6104e781610448565b81146104f1575f80fd5b50565b5f81359050610502816104de565b92915050565b5f805f80608085870312156105205761051f6103a5565b5b5f61052d878288016104ca565b945050602061053e878288016104ca565b935050604061054f878288016104f4565b9250506060610560878288016104ca565b91505092959194509250565b5f60208201905061057f5f830184610439565b92915050565b5f82825260208201905092915050565b7f436f6e646974696f6e7320706f7572206f6274656e6972206c65206469706c6f5f8201527f6d65206e6f6e2072656d706c6965732e00000000000000000000000000000000602082015250565b5f6105ef603083610585565b91506105fa82610595565b604082019050919050565b5f6020820190508181035f83015261061c816105e3565b905091905056fea26469706673582212204e670c4ba41fd7e10434ee819cbecb741feb56b8ada1323f6407a7f96df384ef64736f6c63430008150033",
  "immutableReferences": {},
  "source": "// SPDX-License-Identifier: MIT\npragma solidity ^0.8.21;\n\ncontract VerifierContratEtudiant {\n    \n    // Structure pour reprsenter un tudiant\n    struct Etudiant {\n        bool b2Francais;\n        bool b2Anglais;\n        uint8 moyenne;\n        bool stageValide;\n        bool diplomeObtenu;\n    }\n\n    // Mapping pour stocker les informations des tudiants par adresse\n    mapping(address => Etudiant) public etudiants;\n\n\n    // Fonction pour ajouter les dtails d'un tudiant\n    function ajouterEtudiant(\n        bool _b2Francais,\n        bool _b2Anglais,\n        uint8 _moyenne,\n        bool _stageValide\n    ) external {\n        etudiants[msg.sender] = Etudiant({\n            b2Francais: _b2Francais,\n            b2Anglais: _b2Anglais,\n            moyenne: _moyenne,\n            stageValide: _stageValide,\n            diplomeObtenu: false\n        });\n    }\n\n    // Fonction pour vrifier si un tudiant a obtenu son diplme\n    function verifierDiploma() public view returns (bool) {\n        Etudiant storage etudiantActuel = etudiants[msg.sender];\n        return etudiantActuel.b2Francais &&\n            etudiantActuel.b2Anglais &&\n            etudiantActuel.moyenne > 10 &&\n            etudiantActuel.stageValide &&\n            !etudiantActuel.diplomeObtenu;\n    }\n\n    // Fonction pour marquer qu'un tudiant a obtenu son diplme\n    function marquerDiplomeObtenu() external {\n        require(verifierDiploma(), \"Conditions pour obtenir le diplome non remplies.\");\n        etudiants[msg.sender].diplomeObtenu = true;\n    }\n}\n",
  "sourcePath": "/Users/macbookpro/Documents/GitHub/dappunv/contracts/VerificationContratEtudiant.sol",
  "compiler": {
    "name": "solc",
    "version": "0.8.21+commit.d9974bed.Emscripten.clang"
  },
  "schemaVersion": "3.4.16",
  "updatedAt": "2023-12-04T06:37:30.539Z",
  "devdoc": {
    "kind": "dev",
    "methods": {},
    "version": 1
  },
  "userdoc": {
    "kind": "user",
    "methods": {},
    "version": 1
  }
}